:100000000C9446000C9461000C9461000C94610007
:100010000C9461000C9461000C9461000C946100DC
:100020000C9461000C9461000C9461000C946100CC
:100030000C9461000C9461000C9461000C946100BC
:100040000C9461000C9461000C9461000C946100AC
:100050000C9461000C9461000C9461000C9461009C
:100060000C9461000C9461000C9461000C9461008C
:100070000C9461000C9461000C9461000C9461007C
:100080000C9461000C9461000C94610011241FBE5B
:10009000CFEFD0E1DEBFCDBF11E0A0E0B1E0E8E2FC
:1000A000F8E002C005900D92A632B107D9F712E030
:1000B000A6E2B1E001C01D92AA34B107E1F70C94A9
:1000C000A8000C940000CF93DF93CDB7DEB72A973A
:1000D0000FB6F894DEBF0FBECDBF20912601309140
:1000E0002701FE01319699E0822FA9014F5F5F4FF2
:1000F0009A018193915097FFF7CF50932701409336
:10010000260180E090E02A960FB6F894DEBF0FBE7D
:10011000CDBFDF91CF91089580E090E00895CF9317
:10012000DF93CDB7DEB72A970FB6F894DEBF0FBEC8
:10013000CDBF88E291E00E94680180E090E02A96BD
:100140000FB6F894DEBF0FBECDBFDF91CF910895FB
:10015000CFEFD0E1DEBFCDBF80E091E00E94000292
:100160006FE070E084E191E00E947D038C0160E427
:1001700070E084E191E00E947D037C0164E670E020
:1001800084E191E00E947D03B80184E191E00E9446
:10019000E40364E670E084E191E00E947D03B7012E
:1001A00084E191E00E94E40364E670E084E191E080
:1001B0000E947D030E94E1000E94C5010197D1F7D2
:1001C000FFCFCF93DF93C0913C02D0913D0280914D
:1001D000440290914502A0914602B09147020196D7
:1001E000A11DB11D8093440290934502A093460245
:1001F000B0934702209711F18E819F81009721F0E3
:1002000001978E839F831AC08CE392E00E943C0387
:10021000EC018F85877F8F87E885F9854D855E8521
:100220006B857C858A850995C0913C02D0913D0201
:10023000209721F08E819F81892B31F3DF91CF911F
:10024000089580914802909149020895CF93DF93D9
:10025000FC018785877F8787A081B181109749F04E
:10026000ED018E819F8126813781820F931F8E83BE
:100270009F83BF018CE392E00E945803DF91CF91EE
:100280000895FC01892B11F0878583FF0895CF0124
:100290000E94260108950F931F93CF93DF93EC01E3
:1002A0000E940D048C0182E08C838C859D850097D3
:1002B00039F0BE010E945803CE010E960E94410102
:1002C000C8010E941104DF91CF911F910F910895F1
:1002D0000F931F93CF93DF93EC010E940D048C01C9
:1002E0008F8583FF03C0CE010E942601C8010E94B2
:1002F0001104DF91CF911F910F91089580914402D5
:1003000090914502A0914602B0914702BC01CD01F7
:100310000895DC01FC012581809140029091410209
:10032000009791F0FC018581281750F08081918120
:100330000097C1F7BD0180E492E00E941E0308957A
:1003400082819381892B31F4BD0180E492E00E9487
:10035000EE020895BD01CF010E940B030895EF92B4
:10036000FF920F931F938C010E940D047C018DEF6F
:10037000F8018483C8010E948901C7010E94110409
:100380001F910F91FF90EF900895EF92FF920F93BE
:100390001F93CF93DF930E940D048C0180E492E0C1
:1003A0000E943C03EC010097C9F0909349028093AE
:1003B0004802EE80FF80C8010E941104E885F9859B
:1003C000C70109957C010E940D048C0186E090E034
:1003D0008E839F838C81882341F404C082E0E82EC1
:1003E000F12C03C0CE010E948901C8010E941104B2
:1003F000C701DF91CF911F910F91FF90EF9008956A
:100400001F93CF93DF93EC0110923D0210923C02B8
:100410001092440210924502109246021092470236
:10042000EA81FB81309789F014E014828C81858306
:100430008881998180879187158FCF010E948901DA
:100440002596EA81FB81309781F7DF91CF911F914B
:100450000895CF93DF93DC01EC018F8588608F874F
:100460002C813D81E0913C02F0913D02309719F1E1
:10047000868197812817390760F0281B390B808106
:100480009181009709F1FC0186819781281739072E
:10049000A0F7ED012E833F8386819781821B930B0A
:1004A0008683978382819381892B41F0BD01CF019F
:1004B0000E940B0311C0ED012E833F83BD018CE32D
:1004C00092E00E94EE0208C0FD0126833783BD0141
:1004D0008CE392E00E941E03DF91CF9108956F920A
:1004E0007F928F929F92AF92BF92CF92DF92EF92C4
:1004F000FF920F931F93CF93DF93EC015B014A01AF
:10050000722E6C2C0E940D046C018F8583FF04C039
:10051000CE010E9426018F85AC82BD828886998695
:100520007A860B871C87ED86FE8686298F87CE010B
:100530000E942902C6010E941104DF91CF911F91F0
:100540000F91FF90EF90DF90CF90BF90AF909F9072
:100550008F907F906F900895CF92EF92FF920F93BC
:100560001F93FC0181E0848392E0C92EEE24FF24D6
:100570008F0120E04DED52E0CF010E960E946F02F8
:100580001F910F91FF90EF90CF9008959C018FEFF6
:100590004F3F580789F0F9013E968785826087872B
:1005A0001286238734871586168644835583608791
:1005B0007187CF010E9429020895FB0185E090E038
:1005C000868397831482CB010E94890180E090E0AA
:1005D000089580914802909149020895CF93DF9346
:1005E000EC01DB0188819981009741F08D939C9308
:1005F0001197E881F9816283738305C08D939C9381
:1006000011976A837B83FD0112821382A883B983C9
:10061000DF91CF910895CF93DF93FC01DB018281BD
:100620009381EC0168837983EB018A839B836283E6
:100630007383ED93FC93DF91CF910895CF93DF9374
:10064000EC01DB018A819B81009749F0FC0160830A
:1006500071838A819B81FB018283938305C0FB01A7
:1006600082839383688379831D921C921197AA8356
:10067000BB83DF91CF910895CF93DF93DC01CD91C0
:10068000DC911197209781F088819981009739F446
:100690008D939C931197FD018283938305C08D9365
:1006A0009C93FC0112821382CE01DF91CF910895B9
:1006B000CF93DF93EC01FB01A281B381109769F026
:1006C000808191818D939C9311970190F081E02D11
:1006D000309771F0A283B3830DC0808191818883AC
:1006E0009983A281B3810190F081E02D309791F739
:1006F000AA83BB83DF91CF9108956F927F928F92EF
:100700009F92AF92BF92CF92DF92FF920F931F936F
:10071000CF938C014B01FC0165807680A380B4806F
:10072000C28181E0C82ED12C008002C0CC0CDD1C1F
:100730000A94E2F7FF240E940D04F8017281171653
:1007400038F540E050E03F2D3C1758F4F501E30F39
:10075000F11DE081EE2329F06C0C7D1C3E0F3C174F
:10076000A8F3F32E61E03C1778F4F501E30FF11DD7
:100770002191222391F44C0D5D1D4815590580F4FB
:100780006F5F3F5F3C17A0F33C1711F0F716C8F2FC
:100790000E94110480E090E00AC0F22EF30EF4CF24
:1007A000AF0CB11CF50160830E941104C301CF910D
:1007B0001F910F91FF90DF90CF90BF90AF909F90CF
:1007C0008F907F906F9008950F931F93CF93DF9337
:1007D000EC018B010E940D04BC018D819E81F8010A
:1007E000E81BF90B40E0288139812115310541F0E2
:1007F000F695E7954F5F842F992782179307C0F3EB
:100800008B819C81E80FF91F1082CB010E9411049B
:10081000DF91CF911F910F9108958FB7F8940895AC
:08082000189587FF0895189553
:1008280063005601018C003801028F001E0203008C
:100838000000000004000A140274010B0C0D0E0FD6
:0608480010111213140050
:00000001FF
