:100000000C9446000C9461000C9461000C94610007
:100010000C9461000C9461000C9461000C946100DC
:100020000C9461000C9461000C9461000C946100CC
:100030000C9461000C9461000C9461000C946300BA
:100040000C9461000C9461000C9461000C946100AC
:100050000C9461000C9461000C9461000C9461009C
:100060000C9461000C9461000C9461000C9461008C
:100070000C9461000C9461000C9461000C9461007C
:100080000C9461000C9461000C94610011241FBE5B
:10009000CFEFD0E1DEBFCDBF11E0A0E0B1E0E8EBF3
:1000A000F2E102C005900D92A035B107D9F711E039
:1000B000A0E5B1E001C01D92AC3BB107E1F70C94A3
:1000C000D3000C9400001F920F920FB60F921124D0
:1000D0002F933F934F935F936F937F938F939F9350
:1000E000AF93BF93EF93FF930E94F501FF91EF91C0
:1000F000BF91AF919F918F917F916F915F914F9140
:100100003F912F910F900FBE0F901F90189586E78B
:1001100091E00E94F60280E090E0089586E791E089
:100120000E94F60280E090E0089580915001909145
:1001300051010196909351018093500101C000003C
:1001400060E571E08DE291E00E945207892BB9F3DE
:100150000E94790264E670E00E94840280E090E0F0
:100160000895CF93DF93CDB7DEB722970FB6F894FB
:10017000DEBF0FBECDBFBE016F5F7F4F8DE291E04E
:100180000E94F307892B21F486E791E00E94BE02CA
:1001900080E090E022960FB6F894DEBF0FBECDBF90
:1001A000DF91CF910895CFEFD0E1DEBFCDBF8DE7D6
:1001B00081BF8DE083BF87B7826087BF12BE80E0BA
:1001C00091E00E94FD004EE850E06AE070E08DE2B0
:1001D00091E00E94D30847E850E064E070E08DE2CF
:1001E00091E00E940B090E944E070E946101019755
:1001F000E1F780E090E00C945B09CF93DF93CDB7FB
:10020000DEB724970FB6F894DEBF0FBECDBF89834B
:100210009A831092AF011092AE011092B601109223
:10022000B7011092B8011092B901E981FA81828177
:1002300093810097A9F1E981FA81828193818B836F
:100240009C83EB81FC811482AB81BC81E981FA81C2
:100250008481FD018583AB81BC81E981FA81808144
:100260009181FD0180879187EB81FC81168E178E2D
:10027000EB81FC818FEF9FEF80A391A3EB81FC8149
:1002800012A213A2EB81FC8184E0858F8B819C817B
:100290000E948D0589819A810F9689839A83C5CFA3
:1002A0008091B2019091B3019093BB018093BA0108
:1002B00024960FB6F894DEBF0FBECDBFDF91CF916D
:1002C0000895CF93DF93CDB7DEB72C970FB6F89490
:1002D000DEBF0FBECDBF0E944B0789839A8382EB9E
:1002E00091E00E94AB068B839C838B819C8100975D
:1002F00009F468C08B819C819093BB018093BA0103
:10030000EB81FC81868197818D839E8389819A818F
:100310000E944F078091B6019091B701A091B8015A
:10032000B091B9018F839887A987BA87EB81FC8147
:100330000084F185E02D8D819E8109958D839E83BA
:100340008091B6019091B701A091B801B091B90127
:100350009C018F819885281B390BC9018B879C874D
:10036000EB81FC81268D378D8B859C85281739077D
:1003700030F4EB81FC818B859C85868F978FEB8198
:10038000FC8120A131A18B859C858217930730F4D5
:10039000EB81FC818B859C8580A391A30E944B07F8
:1003A00089839A83EB81FC8188E090E08683978340
:1003B000EB81FC818481882349F48B819C810E949C
:1003C0008D0504C082E090E08D839E8389819A81AF
:1003D0000E944F078D819E812C960FB6F894DEBF48
:1003E0000FBECDBFDF91CF910895CF93DF93CDB7EF
:1003F000DEB724970FB6F894DEBF0FBECDBF809155
:10040000AE019091AF0189839A838091B60190915A
:10041000B701A091B801B091B9010196A11DB11D1C
:100420008093B6019093B701A093B801B093B9013E
:1004300089819A81009709F453C0E981FA81868104
:100440009781009759F0A981BA81E981FA81868163
:1004500097810197FD018683978342C0E981FA81E4
:10046000868197810097E1F58EEA91E00E94AB06C4
:1004700089839A83A981BA81E981FA818785877FF7
:10048000FD018787E981FA81A981BA8189819A81F1
:1004900029813A810084F185E02DEB83FC83FD0105
:1004A00045855685FC0163857485F90182852B811C
:1004B0003C81F9010995E981FA8187859927817045
:1004C0009070009721F089819A810E942104809187
:1004D000AE019091AF0189839A83009709F0BECF56
:1004E00024960FB6F894DEBF0FBECDBFDF91CF913B
:1004F0000895CF93DF93CDB7DEB78091BA01909185
:10050000BB01DF91CF910895CF92EF92FF920F93AD
:100510001F93CF93DF93CDB7DEB726970FB6F8942E
:10052000DEBF0FBECDBF89839A836B837C838981B5
:100530009A818D839E83ED81FE8181E084838D810C
:100540009E810E96CC246894C1F8EE24FF240D8180
:100550001E8120E042E655E06B817C810E943603DB
:1005600026960FB6F894DEBF0FBECDBFDF91CF91B8
:100570001F910F91FF90EF90CF900895CF93DF934D
:10058000CDB7DEB726970FB6F894DEBF0FBECDBF4E
:1005900089839A8389819A818B839C830E944B07EC
:1005A0008D839E83EB81FC8182E08483EB81FC81DF
:1005B00084859585009769F0EB81FC816B817C8156
:1005C000848595850E94FA068B819C810E960E94F7
:1005D00037058D819E810E944F0726960FB6F894AD
:1005E000DEBF0FBECDBFDF91CF910895CF93DF93D4
:1005F000CDB7DEB726970FB6F894DEBF0FBECDBFDE
:1006000089839A8389819A818D839E830E944B0777
:100610008B839C83ED81FE8184859585009769F0AD
:10062000ED81FE816D817E81848595850E94FA062B
:100630008D819E810E960E943705AD81BE81ED8130
:10064000FE8184818D7FFD0184838D819E810E9446
:100650008D058B819C810E944F0726960FB6F894DA
:10066000DEBF0FBECDBFDF91CF910895CF92EF9245
:10067000FF920F931F93CF93DF93CDB7DEB76097B1
:100680000FB6F894DEBF0FBECDBF89839A836B830C
:100690007C834D835E832F8308871987EA86FB86D8
:1006A000CC8689819A818F87988B0E944B078D8792
:1006B0009E87EF85F88987859927969587959695E2
:1006C00087959695879581709070009721F08F851A
:1006D00098890E94AF04EF85F8898B819C8184837F
:1006E0009583EF85F8898D819E8180879187EF853D
:1006F000F8898F818287EF85F88988859985838736
:100700009487EF85F8898A859B8585879687AF854D
:10071000B889EF85F88997858C85892BFD018787B6
:100720008F8598890E9421048D859E850E944F07A0
:1007300060960FB6F894DEBF0FBECDBFDF91CF91AC
:100740001F910F91FF90EF90CF900895CF93DF937B
:10075000CDB7DEB726970FB6F894DEBF0FBECDBF7C
:1007600089839A8389819A818D839E830E944B0716
:100770008B839C83ED81FE8187859927969587954C
:10078000969587959695879581709070009721F042
:100790008D819E810E94AF048D819E810E942104E3
:1007A0008B819C810E944F0726960FB6F894DEBF7E
:1007B0000FBECDBFDF91CF910895CF93DF93CDB71B
:1007C000DEB726970FB6F894DEBF0FBECDBF898384
:1007D0009A8389819A818D839E830E944B078B83A4
:1007E0009C83ED81FE8187859927969587959695BF
:1007F00087959695879581709070009721F08D81EF
:100800009E810E94AF048B819C810E944F07269697
:100810000FB6F894DEBF0FBECDBFDF91CF91089524
:10082000CF93DF93CDB7DEB78091B6019091B7013A
:10083000A091B801B091B901BC01CD01DF91CF9178
:100840000895CF93DF93CDB7DEB726970FB6F89410
:10085000DEBF0FBECDBF89839A83A981BA81E981AA
:10086000FA8187858860FD018787E981FA81848123
:1008700095818B839C838091AE019091AF018D8394
:100880009E83009709F456C0ED81FE812681378151
:100890008B819C818217930728F1ED81FE812B814A
:1008A0003C8186819781281B390BC9018B839C83EE
:1008B000ED81FE8180819181009739F0ED81FE818B
:1008C000808191818D839E83DFCFE981FA818B8145
:1008D0009C818683978369817A818EEA91E00E9468
:1008E000670634C0E981FA818B819C818683978376
:1008F000AD81BE81ED81FE81268137818B819C8116
:10090000281B390BC901FD0186839783ED81FE8188
:1009100082819381009739F069817A818D819E81EE
:100920000E94320613C069817A818EEA91E00E94AA
:10093000EE050CC0E981FA818B819C8186839783C7
:1009400069817A818EEA91E00E94EE0526960FB6C3
:10095000F894DEBF0FBECDBFDF91CF910895CF9346
:10096000DF93CDB7DEB722970FB6F894DEBF0FBE88
:10097000CDBF89839A83A981BA81E981FA8187856C
:10098000877FFD018787E981FA81808191810097C6
:10099000A9F0E981FA8140815181E981FA810190D0
:1009A000F081E02DA981BA8126813781FD01868100
:1009B0009781820F931FFA018683978369817A81D9
:1009C0008EEA91E00E94FA0622960FB6F894DEBFF6
:1009D0000FBECDBFDF91CF910895CF93DF93CDB7F9
:1009E000DEB728970FB6F894DEBF0FBECDBF898360
:1009F0009A836B837C834D835E838D819E812FEFF1
:100A00008F3F920709F42AC089819A810E968F83BD
:100A10009887AF81B885EF81F88587858260FD0171
:100A20008787EF81F8851286EF81F88589819A8121
:100A300083879487EF81F88515861686EF81F88580
:100A40008D819E8184839583EF81F8858B819C8144
:100A5000808791878F8198850E94210428960FB600
:100A6000F894DEBF0FBECDBFDF91CF910895CF9335
:100A7000DF93CDB7DEB722970FB6F894DEBF0FBE77
:100A8000CDBF89839A8389819A81009791F0E9810A
:100A9000FA81878599279695879596958795969556
:100AA000879581709070009721F089819A810E94CA
:100AB000AF0422960FB6F894DEBF0FBECDBFDF9114
:100AC000CF910895CF93DF93CDB7DEB727970FB6B9
:100AD000F894DEBF0FBECDBF89836A837B834C83CE
:100AE0005D838A819B818E839F83EE81FF8185E078
:100AF00090E086839783EE81FF8114828E819F81AF
:100B00000E948D0580E090E027960FB6F894DEBF36
:100B10000FBECDBFDF91CF910895CF93DF93CDB7B7
:100B2000DEB727970FB6F894DEBF0FBECDBF89831F
:100B30009A83E981FA8185818D8382EB91E08E83AE
:100B40009F83EE81FF8180819181009769F1EE8121
:100B5000FF81808191818B839C83EB81FC819581D6
:100B60008D818917A0F0EB81FC81808191810097B4
:100B700039F0EB81FC81808191818B839C83EDCF67
:100B800069817A818E819F810E94670613C0EB8103
:100B9000FC8182819381009739F069817A818B8110
:100BA0009C810E94320606C069817A818E819F8174
:100BB0000E94EE0527960FB6F894DEBF0FBECDBF9C
:100BC000DF91CF910895CF93DF93CDB7DEB78091BA
:100BD000BA019091BB01DF91CF910895CF93DF933C
:100BE000CDB7DEB724970FB6F894DEBF0FBECDBFEA
:100BF00089839A836B837C83E981FA8180819181E7
:100C0000009799F0AB81BC81E981FA818081918163
:100C10008D939C931197E981FA810190F081E02DE9
:100C20008B819C81828393830AC0EB81FC8110823B
:100C30001182E981FA818B819C8182839383EB818C
:100C4000FC8112821382E981FA818B819C818083ED
:100C5000918324960FB6F894DEBF0FBECDBFDF910F
:100C6000CF910895CF93DF93CDB7DEB724970FB61A
:100C7000F894DEBF0FBECDBF89839A836B837C83DC
:100C8000E981FA810280F381E02D8B819C81808350
:100C90009183AB81BC81E981FA8182819381FD01DD
:100CA00082839383E981FA818B819C818283938300
:100CB000EB81FC8189819A818083918324960FB690
:100CC000F894DEBF0FBECDBFDF91CF910895CF93D3
:100CD000DF93CDB7DEB724970FB6F894DEBF0FBE13
:100CE000CDBF89839A836B837C83E981FA8182817A
:100CF0009381009799F0E981FA810280F381E02DD8
:100D00008B819C8180839183AB81BC81E981FA8155
:100D100082819381FD01828393830AC0EB81FC81F0
:100D200012821382E981FA818B819C818083918375
:100D3000EB81FC8110821182E981FA818B819C8197
:100D40008283938324960FB6F894DEBF0FBECDBF87
:100D5000DF91CF910895CF93DF93CDB7DEB726977C
:100D60000FB6F894DEBF0FBECDBF89839A83E981A9
:100D7000FA8180819181009781F1E981FA818081F6
:100D800091818B839C83E981FA810190F081E02D30
:100D9000808191810097A1F0A981BA81E981FA81CE
:100DA0000190F081E02D808191818D939C9311972A
:100DB000E981FA810190F081E02D1282138208C04E
:100DC000E981FA8110821182E981FA81128213820B
:100DD0008B819C818D839E8302C01D821E828D81AA
:100DE0009E8126960FB6F894DEBF0FBECDBFDF9171
:100DF000CF910895CF93DF93CDB7DEB726970FB687
:100E0000F894DEBF0FBECDBF89839A836B837C834A
:100E1000EB81FC8182819381009761F0EB81FC8101
:100E2000A281B381EB81FC81808191818D939C9320
:100E3000119709C0E981FA81AB81BC818D919C91A8
:100E4000119780839183EB81FC8180819181009750
:100E500061F0EB81FC81A081B181EB81FC81828119
:100E60009381FD01828393830DC089819A818D8353
:100E70009E83AB81BC81FD0182819381ED81FE81E6
:100E80008283938326960FB6F894DEBF0FBECDBF44
:100E9000DF91CF9108958FB7F8940895189587FF43
:100EA00008951895CF93DF93CDB7DEB72D970FB682
:100EB000F894DEBF0FBECDBF89839A836B837C839A
:100EC000198689819A818A879B870E944B078D8327
:100ED0009E83EA85FB85808191818F839887EA854F
:100EE000FB858485282F33278F819885820F931F58
:100EF0008F839887EA85FB85268137818F81988546
:100F00008217930730F0EA85FB85848195818F8372
:100F10009887EA85FB85228133818F819885281700
:100F2000390749F48D819E810E944F0781E090E04E
:100F30008C879D874DC0EA85FB8584859927EA8546
:100F4000FB85AC016B817C81808191810E9452097B
:100F5000EA85FB858F81988580839183AA85BB85EF
:100F6000EA85FB85808591850196FD0180879187C3
:100F7000EA85FB85AA85BB8520853185FD018285B3
:100F800093852817390750F0EA85FB8585858823E6
:100F900029F0EA85FB85158681E08987EA85FB854E
:100FA000808991890E94A6038D819E810E944F07AE
:100FB0008985882359F0EA85FB850684F785E02D2D
:100FC00040E050E06A857B8580E009951C861D869F
:100FD0008C859D852D960FB6F894DEBF0FBECDBFD4
:100FE000DF91CF910895CF93DF93CDB7DEB72C97E4
:100FF0000FB6F894DEBF0FBECDBF89839A836B8393
:101000007C8389819A8189879A870E944B078D8387
:101010009E83E985FA85A985BA8520813181FD0104
:10102000828193812817390709F454C0E985FA852C
:1010300084859927E985FA85AC01628173818B816A
:101040009C810E945209A985BA85E985FA85808527
:1010500091850197FD0180879187009759F4E98573
:10106000FA85808991890E94DD03E985FA8581E00E
:10107000858706C0E985FA85808991890E94A60343
:10108000A985BA85E985FA858485282F3327FD014E
:1010900082819381820F931F8F839887E985FA85D8
:1010A000268137818F8198858217930730F0E985F3
:1010B000FA85848195818F839887E985FA858F8168
:1010C0009885828393838D819E810E944F071B8622
:1010D0001C8608C08D819E810E944F0781E090E0B0
:1010E0008B879C878B859C852C960FB6F894DEBFEA
:1010F0000FBECDBFDF91CF910895CF93DF93CDB7D2
:10110000DEB726970FB6F894DEBF0FBECDBF89833A
:101110009A8389819A818D839E830E944B078B835A
:101120009C83ED81FE8110861186ED81FE8181E038
:1011300085872D813E81AD81BE81ED81FE818481D7
:101140009581FD0182839383F90180839183ED81F1
:10115000FE81808991890E94DD038B819C810E94A0
:101160004F0726960FB6F894DEBF0FBECDBFDF91B6
:10117000CF910895CF93DF93CDB7DEB724970FB605
:10118000F894DEBF0FBECDBF89839A83EB81FC81CB
:101190008085918524960FB6F894DEBF0FBECDBF33
:1011A000DF91CF910895CF92EF92FF920F931F930B
:1011B000CF93DF93CDB7DEB728970FB6F894DEBF95
:1011C0000FBECDBF89839A836B837C834D835E83FF
:1011D00089819A818F839887EF81F885CC24C39485
:1011E000EE24FF240F81188520E04D815E816B8104
:1011F0007C81808991890E94360328960FB6F894E5
:10120000DEBF0FBECDBFDF91CF911F910F91FF9039
:10121000EF90CF900895CF93DF93CDB7DEB72897A7
:101220000FB6F894DEBF0FBECDBF89839A836B8360
:101230007C834D835E8389819A818F839887EF8138
:10124000F8858B819C8182879387EF81F8858D81DA
:101250009E8186879787EF81F88581E0858728962C
:101260000FB6F894DEBF0FBECDBFDF91CF910895CA
:10127000CF93DF93CDB7DEB725970FB6F894DEBFD7
:101280000FBECDBF89836A837B834C835D8380E0FF
:1012900090E025960FB6F894DEBF0FBECDBFDF916C
:1012A000CF910895FB01DC0102C001900D924150E5
:0812B0005040D8F70895FFCF6C
:1012B800950052010150524F44554345520000B128
:1012C80000760101434F4E53554D45520000000032
:1012D800000000000000000000000000009A019AD1
:1012E800019A01AE0100000000020038093F010028
:1012F800000000FFFF0000380900000000000000A7
:00000001FF
