:100000000C9446000C9461000C9461000C94610007
:100010000C9461000C9461000C9461000C946100DC
:100020000C9461000C9461000C9461000C946100CC
:100030000C9461000C9461000C9461000C946300BA
:100040000C9461000C9461000C9461000C946100AC
:100050000C9461000C9461000C9461000C9461009C
:100060000C9461000C9461000C9461000C9461008C
:100070000C9461000C9461000C9461000C9461007C
:100080000C9461000C9461000C94610011241FBE5B
:10009000CFEFD0E1DEBFCDBF11E0A0E0B1E0E0EFF7
:1000A000FBE002C005900D92A435B107D9F712E02C
:1000B000A4E5B1E001C01D92A730B107E1F70C94AF
:1000C0003D010C9400001F920F920FB60F92112465
:1000D0002F933F934F935F936F937F938F939F9350
:1000E000AF93BF93EF93FF930E945F03FF91EF9154
:1000F000BF91AF919F918F917F916F915F914F9140
:100100003F912F910F900FBE0F901F901895CF9396
:10011000DF93CDB7DEB721970FB6F894DEBF0FBEE1
:10012000CDBF82E0898340E050E0BE016F5F7F4F2A
:100130008CE391E00E94A10480E090E021960FB64C
:10014000F894DEBF0FBECDBFDF91CF91089590919F
:100150005201992311F0D89A01C0D89881E09827CC
:10016000909352010E945B0164EF71E00E9445038D
:1001700080E090E00895CF92DF92EF92FF920F938C
:100180001F93809154018530F1F48F5F8093540167
:1001900091E0D92ED092550140E050E065E571E044
:1001A0008CE391E00E94A10482E0C82EEE24FF249B
:1001B00087012D2D47E850E068EE73E089EE91E06D
:1001C0000E9408030CC0039B03C01092540107C097
:1001D000039905C0853018F48F5F809354010E9405
:1001E0005B0162E370E00E94450380E090E01F91B4
:1001F0000F91FF90EF90DF90CF900895CF93DF9312
:10020000CDB7DEB721970FB6F894DEBF0FBECDBFD6
:1002100044E650E0BE016F5F7F4F8CE391E00E94A7
:1002200012050E94B801DC01CB01209156013091EA
:1002300057014091580150915901821B930BA40B17
:10024000B50B89589341A040B04060F00E94B801BE
:10025000DC01CB018093560190935701A093580184
:10026000B093590180E090E021960FB6F894DEBF7C
:100270000FBECDBFDF91CF910895CFEFD0E1DEBFAC
:10028000CDBF8DE781BF8DE083BF87B7826087BF19
:1002900012BE8CE391E00E945D0480E091E00E9438
:1002A0006B020E94EA050E940A020197E1F780E0D2
:1002B00090E00C94F7058091050290910602089554
:1002C000CF93DF93FC018785877F8787A081B181EA
:1002D000109749F0ED018E819F8126813781820F31
:1002E000931F8E839F83BF0189EF91E00E943804A2
:1002F000DF91CF910895FC01892B11F0878583FF51
:100300000895CF010E94600108950F931F93CF932A
:10031000DF93EC010E94E7058C0182E08C838C85E1
:100320009D85009739F0BE010E943804CE010E96DB
:100330000E947B01C8010E94EB05DF91CF911F91C4
:100340000F9108950F931F93CF93DF93EC010E94B9
:10035000E7058C018F8583FF03C0CE010E946001F9
:10036000C8010E94EB05DF91CF911F910F91089575
:100370008091010290910202A0910302B0910402C7
:10038000BC01CD010895DC01FC0125818091FD01B6
:100390009091FE01009791F0FC018581281750F0A3
:1003A000808191810097C1F7BD018DEF91E00E949E
:1003B000FE03089582819381892B31F4BD018DEF75
:1003C00091E00E94CE030895BD01CF010E94EB038E
:1003D00008950F931F93CF93DF93EC010E94E705DD
:1003E0008C018C859D85009739F0BE010E943804F0
:1003F000CE010E960E947B018C818D7F8C83CE0175
:100400000E94C301C8010E94EB05DF91CF911F91AB
:100410000F910895CF92DF92EF92FF920F931F9367
:10042000CF93DF930E94E7058C018DEF91E00E944E
:100430001C04EC010097D9F1909306028093050209
:10044000CE80DF80C8010E94EB05E0900102F090B1
:1004500002020091030210910402E885F985C601A9
:1004600009956C018091010290910202A091030212
:10047000B09104029C012E193F098E8D9F8D821729
:10048000930790F088A199A12817390710F428A3A1
:1004900039A30E94E7058C0188E090E08E839F835A
:1004A0008C81882359F407C02E8F3F8FEBCF82E0D9
:1004B000C82ED12C03C0CE010E94C301C8010E94E6
:1004C000EB05C601DF91CF911F910F91FF90EF9047
:1004D000DF90CF900895FF920F931F93CF93DF93F8
:1004E000EC011092FA011092F9011092010210929F
:1004F00002021092030210920402EA81FB813097FB
:10050000D1F00FEF1FEF94E0F92E14828C818583D8
:100510008881998180879187168E178E00A311A3F9
:1005200012A213A2F58ECF010E94C3012F96EA8179
:10053000FB81309751F78091FD019091FE019093DE
:10054000060280930502DF91CF911F910F91FF90DA
:100550000895CF93DF93DC01EC018F8588608F874E
:100560002C813D81E091F901F091FA01309719F168
:10057000868197812817390760F0281B390B808105
:100580009181009709F1FC0186819781281739072D
:10059000A0F7ED012E833F8386819781821B930B09
:1005A0008683978382819381892B41F0BD01CF019E
:1005B0000E94EB0311C0ED012E833F83BD0189EF43
:1005C00091E00E94CE0308C0FD0126833783BD0160
:1005D00089EF91E00E94FE03DF91CF9108950F9380
:1005E0001F93CF93DF93EC010E94E7058C018F8569
:1005F00083FF03C0CE010E946001CE010E94A902C8
:10060000C8010E94EB05DF91CF911F910F910895D2
:100610006F927F928F929F92AF92BF92CF92DF9212
:10062000EF92FF920F931F93CF93DF93EC015B0147
:100630004A01722E6C2C0E94E7056C018F8583FFA6
:1006400004C0CE010E9460018F85AC82BD82888685
:1006500099867A860B871C87ED86FE8686298F878A
:10066000CE010E94A902C6010E94EB05DF91CF9145
:100670001F910F91FF90EF90DF90CF90BF90AF90C0
:100680009F908F907F906F900895CF92EF92FF92FE
:100690000F931F93FC0181E0848322E0C22EEE249D
:1006A000FF248F0120E04DEB53E0CF010E960E9416
:1006B00008031F910F91FF90EF90CF900895CF9373
:1006C000DF93C091F901D091FA01809101029091DC
:1006D0000202A0910302B09104020196A11DB11D76
:1006E0008093010290930202A0930302B09304024C
:1006F000209749F18E819F81009789F001978E8321
:100700009F8321C0CE010E94A902C091F901D0911E
:10071000FA012097C1F08E819F81892BA1F489EF86
:1007200091E00E941C04EC018F85877F8F87E8850C
:10073000F9854D855E856B857C858A8509958F85D4
:1007400080FFE3CFDFCFDF91CF9108959C018FEF42
:100750004F3F580789F0F9013E9687858260878769
:1007600012862387348715861686448355836087CF
:100770007187CF010E94A9020895FB0185E090E0F6
:10078000868397831482CB010E94C30180E090E0AE
:10079000089580910502909106020895CF93DF930A
:1007A000EC01DB0188819981009741F08D939C9346
:1007B0001197E881F9816283738305C08D939C93BF
:1007C00011976A837B83FD0112821382A883B98308
:1007D000DF91CF910895CF93DF93FC01DB018281FC
:1007E0009381EC0168837983EB018A839B83628325
:1007F0007383ED93FC93DF91CF910895CF93DF93B3
:10080000EC01DB018A819B81009749F0FC01608348
:1008100071838A819B81FB018283938305C0FB01E5
:1008200082839383688379831D921C921197AA8394
:10083000BB83DF91CF910895CF93DF93DC01CD91FE
:10084000DC911197209781F088819981009739F484
:100850008D939C931197FD018283938305C08D93A3
:100860009C93FC0112821382CE01DF91CF910895F7
:10087000CF93DF93EC01FB01A281B381109769F064
:10088000808191818D939C9311970190F081E02D4F
:10089000309771F0A283B3830DC0808191818883EA
:1008A0009983A281B3810190F081E02D309791F777
:1008B000AA83BB83DF91CF910895EF92FF920F93AC
:1008C0001F93CF93DF93EC0110E08D891816A8F4E5
:1008D00078E0E72EF12CEC0EFD1E06E0109F900153
:1008E00011248A899B89820F931FBC01C7010E9432
:1008F000CE031F5F8D89181788F32889398910E086
:100900001816C0F44A895B89812F9927FC01EE0FE4
:10091000FF1FEE0FFF1FE80FF91FE80FF91FE40F8D
:10092000F51F248335838C89280F311D1F5F8D8926
:10093000181750F3DF91CF911F910F91FF90EF9017
:1009400008958F929F92AF92BF92CF92DF92EF92D3
:10095000FF920F931F93CF93DF937C016B014A01AA
:100960000E94C903EC010E94E7055C016A857B8552
:100970006115710559F18B011A861B86F70184896F
:100980009927AC01B601F801848195810E94EE059A
:10099000B801C7010C960E94FE03C70104960E948D
:1009A0001C04EC01892B61F01C8283E090E08E83B3
:1009B0009F83CE010E94C301CE010E960E947B014F
:1009C000C5010E94EB0580E090E01FC0C7010896BA
:1009D0000E941C048C01892B89F68114910431F446
:1009E000C5010E94EB0581E090E00FC0EC86FD861A
:1009F00083E08C83BE01C7010E94CE03A40162ED97
:100A000075E0CE010E94A603EBCFDF91CF911F913D
:100A10000F91FF90EF90DF90CF90BF90AF909F909D
:100A20008F9008958F929F92AF92BF92CF92DF9254
:100A3000EF92FF920F931F93CF93DF937C016B0193
:100A40004A010E94C903EC010E94E7055C01C7014D
:100A50000C960E941C048C01892B29F1F7018489D2
:100A60009927F80124813581AC01B901C6010E94A2
:100A7000EE05C7010E941C04EC01892BA1F11C8228
:100A800083E090E08E839F830A871B87CE010E94BC
:100A9000C301CE010E960E947B01C5010E94EB05A9
:100AA00080E090E026C08114910431F4C5010E94D9
:100AB000EB0581E090E01DC097012C5F3F4F2C8734
:100AC0003D8783E08C83BE01C9010E94CE03A4014F
:100AD00062ED75E0CE010E94A603C5010E94EB0500
:100AE00081E090E006C0B801C70108960E94FE03AD
:100AF000D4CFDF91CF911F910F91FF90EF90DF90B6
:100B0000CF90BF90AF909F908F9008958F929F92BB
:100B1000AF92BF92CF92DF92EF92FF920F931F930B
:100B2000CF93DF937C010E94E7054C01FCE0CF2EC0
:100B3000D12CCE0CDF1CE1E0AE2EB12CC6010E9400
:100B40001C048C01892BF1F0C7010E941C04EC01EC
:100B5000009791F01C82AE82BF820A871B870E9697
:100B60000E947B01CE010E94C301C6010E941C04A9
:100B70008C01892B49F706C0B801C70108960E946D
:100B8000FE03DCCFC4010E94EB05DF91CF911F91E2
:100B90000F91FF90EF90DF90CF90BF90AF909F901C
:100BA0008F9008950F931F938B0186E090E0FB01D7
:100BB000868397831482848595850E943804C801B2
:100BC0000E94C30180E090E01F910F9108958FB7BC
:100BD000F8940895189587FF08951895FB01DC0196
:100BE00002C001900D9241505040D8F70895FFCFB8
:100BF000A7005A01014C454400000000000000BB62
:100C0000008301014B45595343414E000000FE0053
:100C1000A7010153595354454D0000000000000046
:100C200000000000000000000000000000000000C4
:100C30000000000000000000000000007E01CB0169
:040C400001050100A9
:00000001FF
